:1000000045588E80DECE012AC60ABDA59A8EB277EB
:10001000AF43AF488E894CBF010D9E8ABF0112BD10
:10002000829CCC2C05DDE68E013E9FB0CEB44AC644
:100030000AEF815A26FB867EB7019A8E82B9BF01EC
:100040009BB7018B8E8846BF018CB701978E87E5E1
:10005000BF0198B701798E8E90BF017AB701918E5A
:1000600088F0BF0192B7016A8E8CF1BF016BB701B6
:10007000678E8273BF0168B701768E8286BF017773
:10008000B701A38E8304BF01A4B701948E829CBFE5
:100090000195B7011D8E8489BF011EBD96E6B6FF8E
:1000A000038A01B7FF038E444BBCC00010273F52A8
:1000B0001CAF8E80E7BDB99C8E80C09F727EA0E28F
:1000C000120FE30FE4B6FF038A01B7FF037EA0E837
:1000D00096684C27081F209319D3A6DDA6391981ED
:1000E00083813C0E821E8168455854454E444544E8
:1000F00020434F4C4F5220424153494320312E312F
:100100000D434F5059524947485420284329203124
:100110003938322042592054414E44590D554E44ED
:100120004552204C4943454E53452046524F4D20A1
:100130004D4943524F534F46540D0D0081CB220879
:100140008E81F080B57EADD481FF270881CD231547
:100150006E9F01379D9F81901027057A819F102700
:1001600007FEBD01A07EB277C14223046E9F013C11
:10017000C028C11022073404BDB26235048E8257F4
:100180007EB2CE4445CC454449D454524FCE54520D
:100190004F46C64445C64C45D44C494EC550434CC9
:1001A000D3505345D45052455345D45343524545FB
:1001B000CE50434C4541D2434F4C4FD2434952431A
:1001C0004CC55041494ED44745D45055D444524172
:1001D000D750434F50D9504D4F44C5504C41D9444E
:1001E0004C4F41C452454E55CD46CE5553494EC74E
:1001F0008970853386A786A88871AF8993BB9532AD
:10020000936193659670968B95469E9D98EC975555
:1002100097589CB6972396219A228C188A094154A4
:10022000CE434FD35441CE4558D04649D84C4FC702
:10023000504FD35351D2484558A45641525054D2EE
:10024000494E5354D254494D45D250504F494ED443
:10025000535452494E47A483B08378838184F285F6
:1002600024844686AC84808BDD86BE877E89689335
:1002700039874E0D6F102713333404D66FC1FD3507
:10028000042602326239966F4C26FA96788102264D
:10029000F4967926F00F6F32627EA444CCBA42DD28
:1002A000DF860297E297DE4897E10FE5DC8ADDE81A
:1002B000C680DDC7C660DDC93932621CAFBDADEB9B
:1002C0009EA69F2FA6802707813A27257EB277A674
:1002D00081970026037EAE15EC80DD689FA696AF61
:1002E000270F865BBDA2829668BDBDCC865DBDA290
:1002F000829D9F1FA98198271D819727141F9ABD52
:10030000ADC620B7AE628CAC9D26058E82F1AF6281
:1003100039BD8C6220A58D0220A19D9F814D1026A4
:10032000212A9D9FBDA5788D43BF01E78D3EAC621C
:10033000102531168D36BF01E59DA526D386029E78
:100340008ABDA65F0F780C7CBDA7D8AE649F7E8661
:10035000FF977DEC62937E240532667EA491108324
:1003600000FF24035CD77DBDA7F420E1BDB26DBDC5
:10037000B73DEEE4AFE41F358E83ABBDB9C27EBF9F
:1003800078BDBC2F0F0A8DF68E004ABDBC358E009D
:1003900040BDBC140F54960A8D0C0D4F102736F239
:1003A0008E004A7EBB8F34027EBFA681490FDAA23F
:1003B000965434022A028D24964F340281812505F9
:1003C0008EBAC58DDE8E83E0BDBEF03502818125FB
:1003D000068E83ABBDB9B935024D2A037EBEE9391D
:1003E0000B76B383BDD3791EF4A6F57B83FCB010E6
:1003F0007C0C1F67CA7CDE53CBC17D1464704C7DBE
:10040000B7EA517A7D6330887E7E9244993A7E4C79
:10041000CC91C77FAAAAAA138100000000037F5EC7
:1004200056CB7980139B0B6480763893168238AA5A
:100430003B20803504F334813504F33480800000A0
:100440000080317217F8BDBC6D102F2FFD8E8432E5
:10045000964F808034028680974FBDB9C28E843714
:10046000BDBB8F8EBAC5BDB9B98E841DBDBEF08E21
:10047000843CBDB9C23504BDBD998E84417EBACAE3
:10048000BDBC5F8EBEC0BDBC1427674D26037EBABF
:100490003A8E004ABDBC355F96612A10BDBCEE8E17
:1004A000004A9661BDBCA0260343D601BDBC4C34B6
:1004B00004BD84468E004ABDBACA8D363502461048
:1004C000253A26398138AA3B29077134583E56749B
:1004D000167EB31B772FEEE3857A1D841C2A7C637E
:1004E00059580A7E75FDE7C68031721810810000E8
:1004F00000008E84C4BDBACABDBC2F964F8188252A
:10050000037EBB5CBDBCEE96018B8127F44A3402AE
:100510008E0040BDB9B98E84C9BDBEFF0F623502E1
:10052000BDBB4839BDBC6D2B037EBCEE03548DF9B9
:100530007EBEE9BD89AE3262860197D8BDAD01109D
:1005400025298FBDB7C21F208302DED7D7DC2BBD84
:10055000BDCCBDB9AC8E02DDD6D826255FBD868761
:10056000BD90AA250B80303402860A3DEBE020EDD9
:10057000C001C90181412605BDB95820BB814C2667
:100580000B8D310FD8BDB95820C33262810D260DB5
:100590008D22BDB9588E02DD9FA67EACA88145276D
:1005A000F181512606BDB9587EAC738D0220AD8114
:1005B0002026108CC6F9A6842708BDA28230015AD5
:1005C00026F439814426486D8427F78D045A26F78E
:1005D000390AD7311F3121A621A7A426F83981492C
:1005E00027138158270D8148265C6F841F108302D2
:1005F000DED7D78DBFBD8687810D278E811B27252E
:10060000810826228C02DD27EC8D458DC420E681F1
:100610004326CB6D84270EBD8687250220F5A78053
:100620008D375A26EE39D6D7C1F9260220C73410A5
:100630006D8026FCE682E701ACE426F83262A780F2
:100640008D170CD720AF810826128D045A26FB394E
:100650008C02DD27D0301F86087EA282814B2705C1
:10066000805327013934028D1E3402A68427166D6B
:100670006126068DE430012003BD85D1A684A1E466
:1006800026E95A26E635A0BDA171817F24F9815F54
:100690002602861B810D270E811B270A810827064B
:1006A000812025E31A0139864F97AF39966F3402BE
:1006B000BDA5AEBDA406BDA35FD66C7EA5E4BDB24C
:1006C0006ADC1F3406BDB357BDB26735061E109CE9
:1006D0001F26517EB4F49D9FBDB26ABDB35734103E
:1006E000EC02109321230493272312E684BDB56DF9
:1006F0003410AE62BDB6433550AF423440BDB7385A
:1007000034045D271FC6FF81292703BDB738340491
:10071000BDB267C6B3BDB26F8D2E1F13AE62A68485
:10072000A06124037EB44A4CA1E42402A7E4A6619C
:100730001E89AE025A3A4D270DA1E42302A6E41FFA
:10074000891E31BDA59A3596BDB1567EB654BDB24F
:100750006ABDB70B3404BDB26DBDB156BDB267966C
:10076000062605BDB70E2003BDB6A43404E661BD60
:10077000B50F35062705A7805A26FB7EB69BBDB26E
:100780006ABDB156C601340496062610BDB70EE701
:10079000E42791BDB26DBDB156BDB1469E52341035
:1007A000BDB26DBD87483414BDB267AE63BDB659E6
:1007B0003404E1662523A661271CE6665A3A318493
:1007C000EE62E661A6E4A0664CA161250CA680A1BC
:1007D000C0260C5A26F7E666215F32677EB4F36CBA
:1007E00066302120D98126265C32620F520F538E4B
:1007F00000529D9F814F2712814827239DA5200CE1
:10080000813810222A71C6038D2A9D9F25F20F5030
:100810000F510F060F630F54C6A0D74F7EBA1C9D11
:100820009F250BBDB3A225E6814724E28007C604BD
:100830008D0220EB68016984102532565A26F58016
:1008400030AB01A7013935400F069EA69D9F81263A
:10085000279981CC275E81FF26089D9F81831027E1
:1008600000CA9FA66EC49E68300126D9C6167EAC0B
:1008700046AE9F00A68CFF83102700938D238DE644
:10088000BDB26AC680D708BDB3578D25BDB267C655
:10089000B3BDB26F9E4BDCA6ED84DC39ED027EAEBB
:1008A000E0C6CCBDB26FC680D7088A80BDB35C9F5E
:1008B0004B7EB1438DEB3410BDB2628DF43540C632
:1008C00032AE4227A9109EA6EEC4DFA6A6043402CB
:1008D000EC84EE023476BDBC35BDB1413576ED8495
:1008E000EF023502A7049DA51026298B109FA6397B
:1008F000C13225FBBDA7E9BDA974BDAD330F6FBDE6
:10090000B95CBDB9AF8E88D97EAC6055464E459D69
:100910009F8D0934108D2D3540AFC4395F9D9F24C4
:100920000680301F899D9F9EB0583A398DEEAE8467
:100930003410BDB2628E004F96062707BDB6579E93
:1009400052960639C6B3BDB26F7EB73DB6FF032BD4
:10095000013BB6FF02BE01123001BF01127E9C3E78
:100960009D9F8DE0BF011239BE01129F527E880EFD
:1009700010272AD6BDAF67BDAD019FD39DA5271017
:1009800081AC263B9D9F27048D24200486FF972B56
:10099000DED38CEEC4ECC42706EC42932B23F49EEA
:1009A000D38D15BDAD219ED3BDACF17EAC73BDAF73
:1009B000677EA5C7A6C0A78011931B26F79F1B398A
:1009C000BD88669D9F81232609BDA5A5BDA3EDBD5C
:1009D000B26D8122260BBDB244C63BBDB26FBDB91C
:1009E0009F327EBDB03532620F6FBDB3579F3BBDA6
:1009F000B1468E02DC4FBDB51A7EAFA4BDAF679E77
:100A00002B399ED19F2B7EAD01BDAD26CC000ADDDA
:100A1000D5DDCF5FDDD19DA524068DE09FD59DA5B9
:100A2000271BBDB26D24068DD39FD19DA5270EBD7A
:100A3000B26D24068DC69FCF2749BDA5C78DC39F24
:100A4000D39ED58DBF9CD3253A8D1CBD8ADDBDAC10
:100A5000EF8DAF9FD38D3A8D0F8D36BD8B7BBDADA6
:100A600026BDACEF7EAC73864F97D89ED3DCD58D78
:100A7000150DD82602ED02AE848D0BD3CF2504814F
:100A8000FA25EE7EB44A3406EC843506260232623C
:100A9000399E19301F30018DED30033001A68427B7
:100AA000F49F0F4A270C4A272A4A26EF8603A7807D
:100AB00020E7EC016A0227014FE6036A0427015F81
:100AC000ED01DD2BBDAD019E0F25E1DC476C80ED16
:100AD0008420C66F84AE01AE029F4720EA9E192093
:100AE000049EA630018D9F300230019FA69D9F4D30
:100AF00027EF2AF99EA681FF27EFBD01A081A72736
:100B0000128184270E818126E49D9F81A52704817F
:100B1000A626D89D9F25049DA520D49EA63410BD51
:100B2000AF679EA6A682BD90AA25F930011F10E0EE
:100B300061C0052720250A3384503085BD89B8203F
:100B4000149F479E1B9F435030859F419F1BBDAC08
:100B50001E9E459FA635108601A784A702A704D62E
:100B60002B2604C6016C02E701D62C2604C6016CB4
:100B700004E7039DA5812C279A209C9E19301F30E5
:100B800001EC02DD68BD8A8630033001A68427EFC0
:100B90004A271B800226F334108E8BD8BDB99CAE39
:100BA000E4EC01BDBDCCBDBDC5BDB9583510341098
:100BB000EC01DD52BD880EBDBDD93540C605300102
:100BC000A68427055AA7C020F530C45D27BE31C4CE
:100BD00033C5BD89B830A420B3554C2000BDB74003
:100BE0008E03D9C60434045F860408530952594A57
:100BF00026F85D260AA6E44A27058C03D9270CCBE4
:100C000030C1392302CB07E7806F8435045A26D5DB
:100C100032628E03D87EB518BDA4299DA5804D34BF
:100C20000226029D9FBDA5789DA52718BDB26D81A6
:100C30002C2711BDB70B86B05D2707862C5A1026CE
:100C4000280897E6BD8CD0340286FD976F35026D7B
:100C5000E02732BDA5C75D2706BDAD197EAC7C7E01
:100C6000A6169D9F814D1026182E0F789D9FBDA51D
:100C700078BDA6487D01E41027188AFE01E20A6FBC
:100C8000BDA6351F3083020026D59E8A9DA5270666
:100C9000BDB26DBDB73D9FD3BDA5C78D2934028DB3
:100CA0001E1F028D1AD3D3DD9D1F01A6E01026174B
:100CB0007C8D13A784A1802614313F26F420DC8D7F
:100CC000008D031E8939BDA1760D7027F87EA61907
:100CD0008D4234064C2706DE8A8D093586C6347E61
:100CE000AC46DE7E30419F7E8E01DABD8D7C7EA6D5
:100CF00044966F81FD260A32620F700D7926030338
:100D0000703934749E7AA68034029F7A0A7926025A
:100D10008DD035F64F341631E420028D2B868A8D26
:100D20003726F88E01D2A680BD8E048C01DA26F615
:100D30008D3026E78D3C26E3A7228D3626DDA723BE
:100D40008D2926D7326235866CA4A6A48105251A82
:100D500086BCBD8E0C7EA61934028D5C2602A1E4F1
:100D60003582A6218D52260281C8398D0526FBA623
:100D700021398D483403A821A72135834F34766863
:100D8000676966646731E420028DBD86978DC92648
:100D9000F8A6268D6FA6278D6B8DC726EC8DD326E2
:100DA000E8A724AE22C6808DC926DEA7805A26F782
:100DB0008DB926D5326435966F218D504F34151A72
:100DC0005096E79E8A8D1F24FC8D1B25FC8D2AC61C
:100DD0000134044F8D21F6FF22562402AAE468E470
:100DE00024F232613595F6FF2256300126084A2654
:100DF00005326235154C398D00340296E621FE4AE3
:100E000026FB35823402A821A721350234071A5067
:100E10008DE58DE37FFF208DDEC6013404A662A43C
:100E2000E427028602B7FF208DCD68E424EF860216
:100E3000B7FF2032613587860197D95ABD8FD89D7B
:100E4000A510270093D7D3BDB156BDB1469E529F82
:100E50004DD6D9BDB6ADBDB99F9E52D6D9E0845A04
:100E6000102B014FBDB9AC20F6D7D39F0F86029748
:100E7000D9A684812527C4812026070CD930015AA0
:100E800026EF9E0FD6D38625BD8FD8BDA2822029FE
:100E900081CD2701393262BDB158BDB146C63BBDD7
:100EA000B26F9E529FD5200696D727089ED50FD7A2
:100EB000E68426037EB44AAE020FDA0FD9A68081FB
:100EC000211027FF728123275B5A2616BD8FD8BDBC
:100ED000A2829DA526D296D72603BDB9589ED57E5F
:100EE000B659812B2609BD8FD8860897DA20CC8188
:100EF0002E274E81251027FF70A184268B81242761
:100F000019812A26F696DA8A2097DAC1022511A6D7
:100F1000018124260B5A30010CD996DA8A1097DA0F
:100F200030010CD90FD80CD95A2749A680812E2719
:100F30001E812327F1812C262196DA8A4097DA2018
:100F4000E5A68481231026FF3F860197D830010C47
:100F5000D85A2720A680812327F5815E2616A184F2
:100F60002612A101260EA102260AC1042506C004EC
:100F700030040CDA301F0CD996DA850826180AD905
:100F80005D2713A684802D270681FE260986088A00
:100F9000049ADA97DA5A9DA51027FF3CD7D3BDB142
:100FA0004196D99BD881111022249FBD8FE5301F17
:100FB000BDB99C0FD79DA5270D97D7813B2705BDB0
:100FC000B26D20029D9F9ED5E684D0D3AE023AD664
:100FD000D31026FEE47E8ED23402862B0DDA270350
:100FE000BDA2823582CE03DBC62096DA85082702B1
:100FF000C62B0D542A040F54C62DE7C0C630E7C0D7
:101000008401102601078EBDC0BDBCA02B15BDBD3F
:10101000D9A68026FCA682A7018C03DA26F78625AE
:10102000A78439964F97472703BD91CD9647102B3C
:101030000081409BD98009BD90EABD9263BD9202B8
:101040009647BD92819647BD924996D82602335F56
:101050004ABD90EABD91854D2706C12A2702E7C007
:101060006FC48E03DA30019F0F963A901090D92703
:1010700038A684812027EE812A27EA4F3402A680F1
:10108000812D27F8812B27F4812427F08130260E2B
:10109000A6018D1625083502A78226FA20C735023B
:1010A0004D26FB9E0F8625A7823981302504803A84
:1010B00080C63996D827014A9B472B014F34022A14
:1010C0000A3402BDBB8235024C20F49647A0E0975B
:1010D000478B092B1996D9800990478D0DBD9263D6
:1010E000201D34028630A7C035024A2AF53996D928
:1010F0008DF8BD924D86F790478DEF0F450FD7BD08
:10110000920296D82602DE399B4716FF43964F344B
:10111000022703BD91CD96D827014A9BD97F03DAD8
:10112000D6DAC40426037303DABB03DA8009340277
:101130002A0A3402BDBB8235024C20F4A6E42B01FE
:101140004F409BD94CBB03DA97450FD7BD92023570
:1011500002BD928196D82602335FE6E02709D64782
:10116000CB09D0D9F003DA862B5D2A03862D50A750
:10117000418645A7C1862F4CC00A24FBCB3AEDC15E
:101180006FC47E90548E03DBE68434048620D6DA66
:10119000C52035042708862AC12026021F89340469
:1011A000A780E6842710C145270CC13027F2C12C47
:1011B00027EEC12E26048630A78296DA85102704F2
:1011C000C624E782840435042602E7823934404F7E
:1011D0009747D64FC18022118EBDC0BDBACA96476F
:1011E000800920ECBDBB820C478EBDBBBDBCA02ED0
:1011F000F38EBDB6BDBCA02E07BDBB6A0A4720F169
:1012000035C03440BDB9B4BDBCC835408EBEC5C6BE
:10121000808D369653AB0397539652A902975296F8
:1012200051A90197519650A98497505C565928E3CB
:101230002403C00B50CB2F30041F98847FA7C053CA
:10124000C4808CBEE926CA6FC40A452609DF3986E8
:101250002EA7C00FD7390AD72608860397D7862C22
:10126000A7C03996478B0A97454C800324FC8B0511
:1012700097D796DA8440260297D73934028DCA353B
:10128000024A2B0A34028630A7C0A6E026ED39CEEA
:10129000929C96B648EEC6398DF56EC492A692C25F
:1012A00092A692C292A63444D6B996C03DD3BA1F34
:1012B00001D6BE5454543A96BE8407CE92DDA6C6DB
:1012C00035C43444D6B996C03DD3BA1F01D6BE54F6
:1012D000543A96BE8403CE92E5A6C635C48040201B
:1012E0001008040201C0300C03D6B93A3944240373
:1012F000463001394424F686C0300139BDB7341078
:101300008E00BDC1C02502C6BF4FED22DC2B10836D
:1013100001002503CC00FFEDA439BD92FCCE00BD39
:1013200096B681022406EC424456ED4296B68104FC
:101330002406ECC44456EDC439BD93B2BD931DBD23
:101340009298A484D6B656241281042504464620D9
:10135000F84C489BC1441F897EB4F34D27F84F20B9
:10136000F0860120014F97C2BDB26ABD931ABD95A8
:1013700081BDB267BD9298E68434041F8943A4847A
:10138000D4B53404AAE0A784A0E09ADB97DB399EA9
:10139000C79FBD9EC99FBF81AC2703BD93B2C6AC9A
:1013A000BDB26FBDB26ABDB734108E00C3BD93032A
:1013B0002006BDB26ABD92FC7EB26781891027F516
:1013C000FF8128270981AC2705C640BDB26FBD93B8
:1013D0008F9EC39FC79EC59FC9BDB26D81BE2709A1
:1013E00081BD10261E91C601865F34049D9FBD9469
:1013F000203504D7C2BD959A9DA5102700A3BDB284
:101400006DC642BDB26F26218D3A8D629EBD3410ED
:101410009EC39FBD8D5835109FBD9EC59FBF202484
:10142000BD931DCE00C37E9320C646BDB26F20047F
:10143000301F9FBFBD94449EBF9CC5270624F1303A
:101440000120EF399EBD3410BD971D24049EC39F1B
:10145000BD1F023121BD92983540DFBD8D3697D733
:10146000BD937796D7ADC4313F26F3393506DCBF3F
:101470003406BD971024049EC59FBF1F023121BDB5
:1014800092983540DFBF8D1520D492ED92F492ED05
:1014900092F492EDCE948AD6B658EEC539CE92E942
:1014A00039108E950DBD97101027FF982404108ECB
:1014B000951B3406CE9506BD971D27B02403CE9507
:1014C0001410A3E4351024041E321E0134463406E1
:1014D000445625091183950E25038300013416BD5A
:1014E000928FADC4BD9377AE662717301FAF66AD40
:1014F000F808ECE4E362EDE4A36425E6EDE4ADA4D2
:1015000020E0351035F69EBD30019FBD399EBF30BD
:10151000019FBF399EBD301F9FBD399EBF301F9FA9
:10152000BF39CE00D38E00FFAFC48E00BFAF427E66
:101530009320270E8D2486553D9EBAE7809CB726C2
:10154000FA39D6B320F0812C27088D0ED7B29DA58D
:101550002707BDB26D8D03D7B339BDB70BC10910D5
:10156000241EE74FC10525048608C004340296B640
:101570004624085D2602C6045A35825625F85F20A7
:10158000F8BD959A9DA527108129270CBDB26D81C4
:101590002C2705BD955A8D0A0EA5D6B20DC226027E
:1015A000D6B3D7B486553DD7B539262334168EFF2A
:1015B000C8A70AA708A706A704A702A701A71EA7EE
:1015C0001CA71AA718B6FF228407B7FF2235963446
:1015D0001696B68B03C6103DCA80DAC1B6FF2284C8
:1015E000073402EAE0F7FF2296BA44BD960F96B69A
:1015F0008B03810726014A8D023596C6038EFFC0F4
:10160000462404A7012002A78430025A26F239C6D4
:10161000078EFFC620EAB6FF2284F79AC1B7FF22E1
:1016200039812C272BBDB70BC105244196BC97BA35
:1016300058CE9707ABC59119223397B7335FA6C52C
:1016400097B954D7B64F97B3860397B29DA5271C79
:10165000BDB7385D27175A86063DDBBC3404DBB7BF
:10166000D0BAD1192207D7B73504D7BA397EB44AD0
:10167000812C270BBDB70B5DBD95AA9DA527EDBDA0
:10168000B7385D2702C608D7C1208BBDB70B5D27D1
:10169000DCC10924D886063DDBBC1F98C6011F02A9
:1016A0001093B725C89319D31B1F014C932124BD58
:1016B000BD80D012DE1B9F1B11931B2417A6C2A74F
:1016C0008211931926F7109F196F3FBDACEFBDAD86
:1016D000267EAD9EDE19109F196F3FA6C0A7A010F1
:1016E0009C1B26F720E5C61ED719860697BC97BA1D
:1016F0004F97B6861097B9860397B2860C97B79E18
:10170000196F1F7EAD191006200C100C2018201820
:10171000DCC593BF243B3401BD9DC33581DCC3933D
:10172000BD20F18D1A3406C6A5BDB26F8D113510DE
:101730001F03108E0300EC81EDC1313F26F839BD47
:10174000B70B5D270DD11922095A86063DDBBC1E59
:1017500089397EB44A5F2002C601D7D8BD01A08175
:101760004026029D9FBD938FBDB26DBD98CC1F10CA
:10177000EE84335E33CBDFD13002E684583A9FCF1C
:10178000960626CE0FD49DA5272D03D4BDB26D0D90
:10179000D82607C647BDB26F2030C6058E9839EEF1
:1017A0008110AE81A18027065A26F47EB277109F61
:1017B000D5DFD99D9F2013C6F896B6462402C6FCF5
:1017C0001F98D4BED7BE94C497C4BD971D24049E51
:1017D000C39FBDDDC3BD971024049EC59FBFDDC55B
:1017E00096B646DCC32404D3C3DDC3BD9420DCC35A
:1017F0009EC530019FC50DD42658445644564456C4
:10180000C30001DDC3BD9298D6C434100DD8272182
:101810008D11A6C4A7805A26F33510BD92E90AC6D9
:1018200026E639DECF3341DFCF1193D126F47EB4E3
:101830004AA6808DEEA7C420DD9894989BBD989B06
:101840009894BE98B1989BB1989498B1B098A1988B
:10185000A1A8C30001DDC396D82609DED1A7C21115
:1018600093CF22F9BD9298D6B656240284AAC60117
:10187000109ECF3412DEC334425424085631211056
:101880009CD127AA0DD8271FE5A427046E9F00D559
:101890006E9F00D943A484A7842016AA84A784201D
:1018A00010A884A784200AA58427061F98AAA4A7A5
:1018B000A43542BD92ED335F11938A26BAAE61968C
:1018C000B93086350232620AC626A839BDB357E65A
:1018D00082A6821F039E1D9C1F10271B6D11A384CF
:1018E0002706EC02308B20EF300239398140260286
:1018F0009D9FBD93B2BD931D860197C2BD9581DCAE
:10190000B434069DA52703BD958196B597D83506B5
:10191000DDB44F3456BD9522BD928FDFD9BD99DF1E
:10192000270FBD99CB860197D7BD99BA00D7BD992E
:10193000BA10DFDC0DDB260310DEDC35560FDB10C2
:10194000DFDC30019FBDDFD197D7279F2B065CD10D
:10195000D623055F5D27DD5AD7C0BD99DF270F105D
:101960008300032504301E8D38BD99CB8D4C435325
:10197000D3D1DDD12F16BD9506BD9A122605CCFF19
:10198000FF20EDBD95148D3E8D5E20E0BD950630A7
:101990008B9FBD43538300012F041F018D037E994C
:1019A00034DDCB3520DCBD341696D740D6C03406A6
:1019B0003420C602BDAC33DCCB39DDCB3520DCC3F3
:1019C000341696D720E69EBD9FC339DDCD109EC349
:1019D0008DF4109FBD8D119ECD308BC3000139BD9C
:1019E00099C6108E95142006108E9506ADA4DE8A39
:1019F0009EBD2B179CD3221334608D16270BBD93ED
:101A00007735603341ADA420E935601F301F019365
:101A10008A39AD9F00D91F89D4D83406A484A16126
:101A200035869E8AC6013414BDB1565FBDA9A2BDDC
:101A3000A976BDB65420023514D7D827FA9FD910FD
:101A4000270F310DD827F0BD9B98813B27F58127C3
:101A500027F18158102701B28D0220E7814F260D12
:101A6000D6DE5C8D5B5AC1042263D7DE39815626EF
:101A70001AD6DF5454C01F8D47C11F225058583406
:101A800004CC7E7EABE4E0E0DDDF39814C2623D65A
:101A9000E18D2D5D2737D7E10FE58D0324FC390D4E
:101AA000D8270ABD9B98812E2705BD9BE243390CA0
:101AB000E5398154260DD6E28D065D2710D7E2392F
:101AC0007E9BAC81502624BD9CCB5D26037EB44A10
:101AD00096E59EDF3412867E97DF97E00FE58D074F
:101AE000351297E59FDF396FE22040814E2603BD16
:101AF0009B988141250481472305BD9BBE202380FF
:101B0000418E9C5BE6860DD82718BD9B98812327C4
:101B100004812B26035C200A812D26035A2003BD55
:101B20009BE25AC10B22A63404D6E196E23DDDD5F4
:101B3000336196DE8101222C8E9C62C6183D3A35B7
:101B400004583A31848D45DDE38D0C96DF8D0B8D85
:101B50000696E08D0520F2867E12B7FF20AEA430F7
:101B60001F26FC398E9C7AC60C3D3A35043A8D1CF2
:101B7000DDE38D0C96DF8D0B8D0696E08D0520F252
:101B8000867E12B7FF20A6844A26FD39C6FF96E559
:101B900027058B023D44563934100DD8274D9ED968
:101BA000A6809FD90AD8812027F035908DEA812B15
:101BB000273C812D273C813E2742813C2739813DAE
:101BC000273FBD90AA25245F803097D7860A3D4DD8
:101BD0002619DBD725150DD82717BD9B98BD90AAD0
:101BE00024E60CD89ED9301F9FD9397EB44A5C2791
:101BF000FA395D27F65A395D27F154395D2BEC58D7
:101C00003934608D16BDB70E35E0BD9C1BC602BDD4
:101C1000AC33D6D89ED934147E9A329ED93410BDB6
:101C20009B98BDB3A225C4BD9B98813B26F9351076
:101C3000DEA634409FA6BDB28435109FA6394F1F43
:101C40008BDCE310270D7493D5DDE3220D0FE30F3A
:101C5000E4350210EE67847F34023B0A0C01030571
:101C6000060801A80190017A01640150013D012B91
:101C7000011A010A00FB00ED00DF00D300C700BB22
:101C800000B100A6009D0094008B0083007C0075CD
:101C9000006EA69C938B837B746D67615B56514C81
:101CA00047433F3B3734312E2B282623211F1D1B52
:101CB0001918161413129E8AC6013414D7C29FD560
:101CC000BD959ABDB156BDB6542008BD9B987E9B6C
:101CD000BE3514D7D827FA9FD9102700EA0DD82788
:101CE000F0BD9B98813B27F5812727F1814E260483
:101CF00003D520E98142260403D620E1815810272C
:101D00000096814D1027012A3402C6010DD82711F3
:101D1000BD9B98BDB3A23401BD9BE2350124028D69
:101D2000AA3502814327288141272E8153273281FA
:101D300055275C81442755814C274C81522743808D
:101D400045272F4A27274A27324A271D7EB44ABDF6
:101D5000955DD7B2BD959A2084C10424EFD7E820C1
:101D6000F6C13F24E7D7E920EE4F8D58214F1F01E0
:101D700020594F1F018D4D1E0120504F1F018D44D2
:101D800020494F9E8A20444F8D3A20F74F20034F21
:101D90008D329E8A1E102033BD9C1BC602BDAC3303
:101DA000D6D89ED934147E9CC6D6E9271B4F1E0177
:101DB000A7E22A028D0DBD9FB51F30445644566DD3
:101DC000E02A0440508200391F103934068DDA357C
:101DD0001034068DD43510109EE834206DE42708A9
:101DE0001E108DDF6AE420F43520DE8AD3C72B0273
:101DF0001F031F109E8AD3C92B021F0111830100EC
:101E00002503CE00FF8C00C025038E00BFDCC7DD9C
:101E1000BDDCC9DDBF9FC5DFC30DD526049FC9DF6B
:101E2000C7BD94200DD62603BD94A10FD50FD67E35
:101E30009CDDBD9B983402BD9E5E3406BD9B98819F
:101E40002C1026FF07BD9E5B1F0135403502812BFC
:101E50002704812D26A61F307E9DCBBD9B98812B0C
:101E60002707812D2704BD9BE24F3402BD9CCB3553
:101E7000024D27044F5082003900000001FEC519B1
:101E800019FB1631F2F4FB4A51EC8461F9E1C77891
:101E9000AED4DC8E3BC5E5A269B506B50681402609
:101EA000029D9FBD9522BD93B2BD931DAEC49FCB35
:101EB000AE429FCDBDB26DBDB73DCE00CFAFC4BD6C
:101EC0009320860197C2BD95818E01009DA5270FA5
:101ED000BDB26DBDB141964F8B08974FBDB74096CF
:101EE000B6850227041F10308B9FD1C601D7C2D7F9
:101EF000D8BD9FE23406BD9FE2DDD9350634069E8B
:101F0000C39FBD9EC59FBFCE9E7B8401270350CB40
:101F100008585833C53440BD9FA73540335E341050
:101F2000BD9FA73520A6E484032706810327021E50
:101F3000129FC31F21DCD1BD9FB51F204D10261558
:101F400009D7C51F3097C6A6E48102250E81062455
:101F50000ADCCB93C324114F5F200DDCCBD3C32508
:101F6000051093D32502DCD3DDC3A6E48104250A42
:101F7000DCCD93C524114F5F200DDCCDD3C52505E5
:101F80001093D52502DCD5DDC50DD826028D503540
:101F90000604D825051093D9270C5CC10826044CEB
:101FA0005F84077E9EFD399ECFECC4270783000126
:101FB0008D031F213934766F64A6633DED66EC61B5
:101FC0003DEB668900ED65E6E4A6633DE365ED65FE
:101FD00024026C64A6E4E6623DE364ED6435F67EBB
:101FE00094A15F9DA52711BDB26DBDB141964F8BE8
:101FF00006974FBDB70EC43F1F98C40744444439E9
:00000001FF
